{
  "_format": "hh-sol-artifact-1",
  "contractName": "MedicalRecords",
  "sourceName": "contracts/MedicalRecords.sol",
  "abi": [
    {
      "anonymous": false,
      "inputs": [
        {
          "indexed": true,
          "internalType": "string",
          "name": "recordHash",
          "type": "string"
        },
        {
          "indexed": true,
          "internalType": "address",
          "name": "addedBy",
          "type": "address"
        },
        {
          "indexed": false,
          "internalType": "uint256",
          "name": "timestamp",
          "type": "uint256"
        }
      ],
      "name": "RecordAdded",
      "type": "event"
    },
    {
      "inputs": [
        {
          "internalType": "string",
          "name": "_recordHash",
          "type": "string"
        }
      ],
      "name": "addRecord",
      "outputs": [],
      "stateMutability": "nonpayable",
      "type": "function"
    },
    {
      "inputs": [
        {
          "internalType": "string",
          "name": "",
          "type": "string"
        }
      ],
      "name": "records",
      "outputs": [
        {
          "internalType": "bool",
          "name": "",
          "type": "bool"
        }
      ],
      "stateMutability": "view",
      "type": "function"
    }
  ],
  "bytecode": "0x608060405234801561001057600080fd5b50610518806100206000396000f3fe608060405234801561001057600080fd5b50600436106100365760003560e01c8063541e771d1461003b578063d81aa8c41461006b575b600080fd5b61005560048036038101906100509190610321565b610087565b6040516100629190610385565b60405180910390f35b61008560048036038101906100809190610321565b6100bd565b005b6000818051602081018201805184825260208301602085012081835280955050505050506000915054906101000a900460ff1681565b6000816040516100cd919061041a565b908152602001604051809103902060009054906101000a900460ff1615610129576040517f08c379a00000000000000000000000000000000000000000000000000000000081526004016101209061048e565b60405180910390fd5b600160008260405161013b919061041a565b908152602001604051809103902060006101000a81548160ff0219169083151502179055503373ffffffffffffffffffffffffffffffffffffffff1681604051610185919061041a565b60405180910390207f6c5d3cf7b5cb6ad20a6a0bd461b2ccf34c51b6014e9cb7f8feec03d96dcf3c44426040516101bc91906104c7565b60405180910390a350565b6000604051905090565b600080fd5b600080fd5b600080fd5b600080fd5b6000601f19601f8301169050919050565b7f4e487b7100000000000000000000000000000000000000000000000000000000600052604160045260246000fd5b61022e826101e5565b810181811067ffffffffffffffff8211171561024d5761024c6101f6565b5b80604052505050565b60006102606101c7565b905061026c8282610225565b919050565b600067ffffffffffffffff82111561028c5761028b6101f6565b5b610295826101e5565b9050602081019050919050565b82818337600083830152505050565b60006102c46102bf84610271565b610256565b9050828152602081018484840111156102e0576102df6101e0565b5b6102eb8482856102a2565b509392505050565b600082601f830112610308576103076101db565b5b81356103188482602086016102b1565b91505092915050565b600060208284031215610337576103366101d1565b5b600082013567ffffffffffffffff811115610355576103546101d6565b5b610361848285016102f3565b91505092915050565b60008115159050919050565b61037f8161036a565b82525050565b600060208201905061039a6000830184610376565b92915050565b600081519050919050565b600081905092915050565b60005b838110156103d45780820151818401526020810190506103b9565b838111156103e3576000848401525b50505050565b60006103f4826103a0565b6103fe81856103ab565b935061040e8185602086016103b6565b80840191505092915050565b600061042682846103e9565b915081905092915050565b600082825260208201905092915050565b7f5265636f7264206861736820616c7265616479206578697374732e0000000000600082015250565b6000610478601b83610431565b915061048382610442565b602082019050919050565b600060208201905081810360008301526104a78161046b565b9050919050565b6000819050919050565b6104c1816104ae565b82525050565b60006020820190506104dc60008301846104b8565b9291505056fea2646970667358221220539aa8836944d25f79accc503e2e9a973165f2ba7dc6b42e40754399056fd17f64736f6c63430008090033",
  "linkReferences": {},
  "deployedLinkReferences": {}
}